{
  "_format": "hh-sol-artifact-1",
  "contractName": "ERC721",
  "sourceName": "contracts/ERC721.sol",
  "abi": [
    {
      "inputs": [
        {
          "internalType": "string",
          "name": "name_",
          "type": "string"
        },
        {
          "internalType": "string",
          "name": "symbol_",
          "type": "string"
        }
      ],
      "stateMutability": "nonpayable",
      "type": "constructor"
    },
    {
      "anonymous": false,
      "inputs": [
        {
          "indexed": true,
          "internalType": "address",
          "name": "owner",
          "type": "address"
        },
        {
          "indexed": true,
          "internalType": "address",
          "name": "approved",
          "type": "address"
        },
        {
          "indexed": true,
          "internalType": "uint256",
          "name": "tokenId",
          "type": "uint256"
        }
      ],
      "name": "Approval",
      "type": "event"
    },
    {
      "anonymous": false,
      "inputs": [
        {
          "indexed": true,
          "internalType": "address",
          "name": "owner",
          "type": "address"
        },
        {
          "indexed": true,
          "internalType": "address",
          "name": "operator",
          "type": "address"
        },
        {
          "indexed": false,
          "internalType": "bool",
          "name": "approved",
          "type": "bool"
        }
      ],
      "name": "ApprovalForAll",
      "type": "event"
    },
    {
      "anonymous": false,
      "inputs": [
        {
          "indexed": true,
          "internalType": "address",
          "name": "from",
          "type": "address"
        },
        {
          "indexed": true,
          "internalType": "address",
          "name": "to",
          "type": "address"
        },
        {
          "indexed": true,
          "internalType": "uint256",
          "name": "tokenId",
          "type": "uint256"
        }
      ],
      "name": "Transfer",
      "type": "event"
    },
    {
      "inputs": [
        {
          "internalType": "address",
          "name": "to",
          "type": "address"
        },
        {
          "internalType": "uint256",
          "name": "tokenId",
          "type": "uint256"
        },
        {
          "internalType": "bytes",
          "name": "data",
          "type": "bytes"
        }
      ],
      "name": "_safeMint",
      "outputs": [],
      "stateMutability": "nonpayable",
      "type": "function"
    },
    {
      "inputs": [
        {
          "internalType": "address",
          "name": "to",
          "type": "address"
        },
        {
          "internalType": "uint256",
          "name": "tokenId",
          "type": "uint256"
        }
      ],
      "name": "approve",
      "outputs": [],
      "stateMutability": "nonpayable",
      "type": "function"
    },
    {
      "inputs": [
        {
          "internalType": "address",
          "name": "owner",
          "type": "address"
        }
      ],
      "name": "balanceOf",
      "outputs": [
        {
          "internalType": "uint256",
          "name": "",
          "type": "uint256"
        }
      ],
      "stateMutability": "view",
      "type": "function"
    },
    {
      "inputs": [
        {
          "internalType": "uint256",
          "name": "tokenId",
          "type": "uint256"
        }
      ],
      "name": "getApproved",
      "outputs": [
        {
          "internalType": "address",
          "name": "",
          "type": "address"
        }
      ],
      "stateMutability": "view",
      "type": "function"
    },
    {
      "inputs": [
        {
          "internalType": "address",
          "name": "owner",
          "type": "address"
        },
        {
          "internalType": "address",
          "name": "operator",
          "type": "address"
        }
      ],
      "name": "isApprovedForAll",
      "outputs": [
        {
          "internalType": "bool",
          "name": "",
          "type": "bool"
        }
      ],
      "stateMutability": "view",
      "type": "function"
    },
    {
      "inputs": [],
      "name": "name",
      "outputs": [
        {
          "internalType": "string",
          "name": "",
          "type": "string"
        }
      ],
      "stateMutability": "view",
      "type": "function"
    },
    {
      "inputs": [
        {
          "internalType": "uint256",
          "name": "tokenId",
          "type": "uint256"
        }
      ],
      "name": "ownerOf",
      "outputs": [
        {
          "internalType": "address",
          "name": "",
          "type": "address"
        }
      ],
      "stateMutability": "view",
      "type": "function"
    },
    {
      "inputs": [
        {
          "internalType": "address",
          "name": "from",
          "type": "address"
        },
        {
          "internalType": "address",
          "name": "to",
          "type": "address"
        },
        {
          "internalType": "uint256",
          "name": "tokenId",
          "type": "uint256"
        }
      ],
      "name": "safeTransferFrom",
      "outputs": [],
      "stateMutability": "nonpayable",
      "type": "function"
    },
    {
      "inputs": [
        {
          "internalType": "address",
          "name": "from",
          "type": "address"
        },
        {
          "internalType": "address",
          "name": "to",
          "type": "address"
        },
        {
          "internalType": "uint256",
          "name": "tokenId",
          "type": "uint256"
        },
        {
          "internalType": "bytes",
          "name": "data",
          "type": "bytes"
        }
      ],
      "name": "safeTransferFrom",
      "outputs": [],
      "stateMutability": "nonpayable",
      "type": "function"
    },
    {
      "inputs": [
        {
          "internalType": "address",
          "name": "operator",
          "type": "address"
        },
        {
          "internalType": "bool",
          "name": "approved",
          "type": "bool"
        }
      ],
      "name": "setApprovalForAll",
      "outputs": [],
      "stateMutability": "nonpayable",
      "type": "function"
    },
    {
      "inputs": [],
      "name": "symbol",
      "outputs": [
        {
          "internalType": "string",
          "name": "",
          "type": "string"
        }
      ],
      "stateMutability": "view",
      "type": "function"
    },
    {
      "inputs": [
        {
          "internalType": "uint256",
          "name": "tokenId",
          "type": "uint256"
        }
      ],
      "name": "tokenURI",
      "outputs": [
        {
          "internalType": "string",
          "name": "",
          "type": "string"
        }
      ],
      "stateMutability": "view",
      "type": "function"
    },
    {
      "inputs": [
        {
          "internalType": "address",
          "name": "from",
          "type": "address"
        },
        {
          "internalType": "address",
          "name": "to",
          "type": "address"
        },
        {
          "internalType": "uint256",
          "name": "tokenId",
          "type": "uint256"
        }
      ],
      "name": "transferFrom",
      "outputs": [],
      "stateMutability": "nonpayable",
      "type": "function"
    }
  ],
  "bytecode": "0x60806040523480156200001157600080fd5b5060405162001543380380620015438339810160408190526200003491620001b9565b81516200004990600090602085019062000068565b5080516200005f90600190602084019062000068565b50505062000273565b828054620000769062000220565b90600052602060002090601f0160209004810192826200009a5760008555620000e5565b82601f10620000b557805160ff1916838001178555620000e5565b82800160010185558215620000e5579182015b82811115620000e5578251825591602001919060010190620000c8565b50620000f3929150620000f7565b5090565b5b80821115620000f35760008155600101620000f8565b600082601f8301126200011f578081fd5b81516001600160401b03808211156200013c576200013c6200025d565b6040516020601f8401601f19168201810183811183821017156200016457620001646200025d565b60405283825285840181018710156200017b578485fd5b8492505b838310156200019e57858301810151828401820152918201916200017f565b83831115620001af57848185840101525b5095945050505050565b60008060408385031215620001cc578182fd5b82516001600160401b0380821115620001e3578384fd5b620001f1868387016200010e565b9350602085015191508082111562000207578283fd5b5062000216858286016200010e565b9150509250929050565b6002810460018216806200023557607f821691505b602082108114156200025757634e487b7160e01b600052602260045260246000fd5b50919050565b634e487b7160e01b600052604160045260246000fd5b6112c080620002836000396000f3fe608060405234801561001057600080fd5b50600436106100cf5760003560e01c80636a4f832b1161008c578063a22cb46511610066578063a22cb4651461019b578063b88d4fde146101ae578063c87b56dd146101c1578063e985e9c5146101d4576100cf565b80636a4f832b1461016057806370a082311461017357806395d89b4114610193576100cf565b806306fdde03146100d4578063081812fc146100f2578063095ea7b31461011257806323b872dd1461012757806342842e0e1461013a5780636352211e1461014d575b600080fd5b6100dc6101f4565b6040516100e99190610ec7565b60405180910390f35b610105610100366004610df8565b610286565b6040516100e99190610e6b565b610125610120366004610d52565b6102b0565b005b610125610135366004610c77565b610307565b610125610148366004610c77565b61033f565b61010561015b366004610df8565b61035a565b61012561016e366004610d7b565b610395565b610186610181366004610c2b565b6103c8565b6040516100e99190611166565b6100dc61040c565b6101256101a9366004610d18565b61041b565b6101256101bc366004610cb2565b610431565b6100dc6101cf366004610df8565b610470565b6101e76101e2366004610c45565b6104d7565b6040516100e99190610ebc565b606060008054610203906111de565b80601f016020809104026020016040519081016040528092919081815260200182805461022f906111de565b801561027c5780601f106102515761010080835404028352916020019161027c565b820191906000526020600020905b81548152906001019060200180831161025f57829003601f168201915b5050505050905090565b600061029182610505565b506000818152600460205260409020546001600160a01b03165b919050565b60006102bb8261035a565b9050806001600160a01b0316836001600160a01b031614156102f85760405162461bcd60e51b81526004016102ef90611125565b60405180910390fd5b610302838361052d565b505050565b61031861031261059b565b8261059f565b6103345760405162461bcd60e51b81526004016102ef90610eda565b6103028383836105fe565b61030283838360405180602001604052806000815250610431565b6000818152600260205260408120546001600160a01b03168061038f5760405162461bcd60e51b81526004016102ef906110ee565b92915050565b61039f8383610740565b6103ac6000848484610827565b6103025760405162461bcd60e51b81526004016102ef90610f27565b60006001600160a01b0382166103f05760405162461bcd60e51b81526004016102ef90611070565b506001600160a01b031660009081526003602052604090205490565b606060018054610203906111de565b61042d61042661059b565b8383610942565b5050565b61044261043c61059b565b8361059f565b61045e5760405162461bcd60e51b81526004016102ef90610eda565b61046a848484846109e5565b50505050565b606061047b82610505565b6000610485610a18565b905060008151116104a557604051806020016040528060008152506104d0565b806104af84610a2a565b6040516020016104c0929190610e3c565b6040516020818303038152906040525b9392505050565b6001600160a01b03918216600090815260056020908152604080832093909416825291909152205460ff1690565b61050e81610b45565b61052a5760405162461bcd60e51b81526004016102ef906110ee565b50565b600081815260046020526040902080546001600160a01b0319166001600160a01b03841690811790915581906105628261035a565b6001600160a01b03167f8c5be1e5ebec7d5bd14f71427d1e84f3dd0314c0f7b2291e5b200ac8c7c3b92560405160405180910390a45050565b3390565b6000806105ab8361035a565b9050806001600160a01b0316846001600160a01b031614806105d257506105d281856104d7565b806105f65750836001600160a01b03166105eb84610286565b6001600160a01b0316145b949350505050565b826001600160a01b03166106118261035a565b6001600160a01b0316146106375760405162461bcd60e51b81526004016102ef90610f79565b6001600160a01b03821661065d5760405162461bcd60e51b81526004016102ef90610ff5565b610668838383610302565b600081815260046020908152604080832080546001600160a01b03191690556001600160a01b0386168352600390915281208054600192906106ab90849061119b565b90915550506001600160a01b03821660009081526003602052604081208054600192906106d990849061116f565b909155505060008181526002602052604080822080546001600160a01b0319166001600160a01b0386811691821790925591518493918716917fddf252ad1be2c89b69c2b068fc378daa952ba7f163c4a11628f55a4df523b3ef91a4610302838383610302565b6001600160a01b0382166107665760405162461bcd60e51b81526004016102ef906110b9565b61076f81610b45565b1561078c5760405162461bcd60e51b81526004016102ef90610fbe565b61079860008383610302565b6001600160a01b03821660009081526003602052604081208054600192906107c190849061116f565b909155505060008181526002602052604080822080546001600160a01b0319166001600160a01b03861690811790915590518392907fddf252ad1be2c89b69c2b068fc378daa952ba7f163c4a11628f55a4df523b3ef908290a461042d60008383610302565b600061083b846001600160a01b0316610b62565b1561093757836001600160a01b031663150b7a0261085761059b565b8786866040518563ffffffff1660e01b81526004016108799493929190610e7f565b602060405180830381600087803b15801561089357600080fd5b505af19250505080156108c3575060408051601f3d908101601f191682019092526108c091810190610dd0565b60015b61091d573d8080156108f1576040519150601f19603f3d011682016040523d82523d6000602084013e6108f6565b606091505b5080516109155760405162461bcd60e51b81526004016102ef90610f27565b805181602001fd5b6001600160e01b031916630a85bd0160e11b1490506105f6565b506001949350505050565b816001600160a01b0316836001600160a01b031614156109745760405162461bcd60e51b81526004016102ef90611039565b6001600160a01b0383811660008181526005602090815260408083209487168084529490915290819020805460ff1916851515179055517f17307eab39ab6107e8899845ad3d59bd9653f200f220920489ca2b5937696c31906109d8908590610ebc565b60405180910390a3505050565b6109f08484846105fe565b6109fc84848484610827565b61046a5760405162461bcd60e51b81526004016102ef90610f27565b60408051602081019091526000815290565b606081610a4f57506040805180820190915260018152600360fc1b60208201526102ab565b8160005b8115610a795780610a6381611219565b9150610a729050600a83611187565b9150610a53565b60008167ffffffffffffffff811115610aa257634e487b7160e01b600052604160045260246000fd5b6040519080825280601f01601f191660200182016040528015610acc576020820181803683370190505b5090505b84156105f657610ae160018361119b565b9150610aee600a86611234565b610af990603061116f565b60f81b818381518110610b1c57634e487b7160e01b600052603260045260246000fd5b60200101906001600160f81b031916908160001a905350610b3e600a86611187565b9450610ad0565b6000908152600260205260409020546001600160a01b0316151590565b600080826001600160a01b0316803b806020016040519081016040528181526000908060200190933c511192915050565b80356001600160a01b03811681146102ab57600080fd5b600082601f830112610bba578081fd5b813567ffffffffffffffff80821115610bd557610bd5611274565b604051601f8301601f191681016020018281118282101715610bf957610bf9611274565b604052828152848301602001861015610c10578384fd5b82602086016020830137918201602001929092529392505050565b600060208284031215610c3c578081fd5b6104d082610b93565b60008060408385031215610c57578081fd5b610c6083610b93565b9150610c6e60208401610b93565b90509250929050565b600080600060608486031215610c8b578081fd5b610c9484610b93565b9250610ca260208501610b93565b9150604084013590509250925092565b60008060008060808587031215610cc7578081fd5b610cd085610b93565b9350610cde60208601610b93565b925060408501359150606085013567ffffffffffffffff811115610d00578182fd5b610d0c87828801610baa565b91505092959194509250565b60008060408385031215610d2a578182fd5b610d3383610b93565b915060208301358015158114610d47578182fd5b809150509250929050565b60008060408385031215610d64578182fd5b610d6d83610b93565b946020939093013593505050565b600080600060608486031215610d8f578283fd5b610d9884610b93565b925060208401359150604084013567ffffffffffffffff811115610dba578182fd5b610dc686828701610baa565b9150509250925092565b600060208284031215610de1578081fd5b81516001600160e01b0319811681146104d0578182fd5b600060208284031215610e09578081fd5b5035919050565b60008151808452610e288160208601602086016111b2565b601f01601f19169290920160200192915050565b60008351610e4e8184602088016111b2565b835190830190610e628183602088016111b2565b01949350505050565b6001600160a01b0391909116815260200190565b6001600160a01b0385811682528416602082015260408101839052608060608201819052600090610eb290830184610e10565b9695505050505050565b901515815260200190565b6000602082526104d06020830184610e10565b6020808252602d908201527f4552433732313a2063616c6c6572206973206e6f7420746f6b656e206f776e6560408201526c1c881bdc88185c1c1c9bdd9959609a1b606082015260800190565b60208082526032908201527f4552433732313a207472616e7366657220746f206e6f6e20455243373231526560408201527131b2b4bb32b91034b6b83632b6b2b73a32b960711b606082015260800190565b60208082526025908201527f4552433732313a207472616e736665722066726f6d20696e636f72726563742060408201526437bbb732b960d91b606082015260800190565b6020808252601c908201527f4552433732313a20746f6b656e20616c7265616479206d696e74656400000000604082015260600190565b60208082526024908201527f4552433732313a207472616e7366657220746f20746865207a65726f206164646040820152637265737360e01b606082015260800190565b60208082526019908201527f4552433732313a20617070726f766520746f2063616c6c657200000000000000604082015260600190565b60208082526029908201527f4552433732313a2061646472657373207a65726f206973206e6f7420612076616040820152683634b21037bbb732b960b91b606082015260800190565b6020808252818101527f4552433732313a206d696e7420746f20746865207a65726f2061646472657373604082015260600190565b60208082526018908201527f4552433732313a20696e76616c696420746f6b656e2049440000000000000000604082015260600190565b60208082526021908201527f4552433732313a20617070726f76616c20746f2063757272656e74206f776e656040820152603960f91b606082015260800190565b90815260200190565b6000821982111561118257611182611248565b500190565b6000826111965761119661125e565b500490565b6000828210156111ad576111ad611248565b500390565b60005b838110156111cd5781810151838201526020016111b5565b8381111561046a5750506000910152565b6002810460018216806111f257607f821691505b6020821081141561121357634e487b7160e01b600052602260045260246000fd5b50919050565b600060001982141561122d5761122d611248565b5060010190565b6000826112435761124361125e565b500690565b634e487b7160e01b600052601160045260246000fd5b634e487b7160e01b600052601260045260246000fd5b634e487b7160e01b600052604160045260246000fdfea2646970667358221220447b9b36935fc104460722759e9a2ece037c60743f0fc63cc6629ee45d799b9064736f6c63430008000033",
  "linkReferences": {},
  "deployedLinkReferences": {}
}