{
  "_format": "hh-sol-artifact-1",
  "contractName": "mainNFT",
  "sourceName": "contracts/mainNFT.sol",
  "abi": [
    {
      "inputs": [],
      "stateMutability": "nonpayable",
      "type": "constructor"
    },
    {
      "anonymous": false,
      "inputs": [
        {
          "indexed": true,
          "internalType": "address",
          "name": "owner",
          "type": "address"
        },
        {
          "indexed": true,
          "internalType": "address",
          "name": "approved",
          "type": "address"
        },
        {
          "indexed": true,
          "internalType": "uint256",
          "name": "tokenId",
          "type": "uint256"
        }
      ],
      "name": "Approval",
      "type": "event"
    },
    {
      "anonymous": false,
      "inputs": [
        {
          "indexed": true,
          "internalType": "address",
          "name": "owner",
          "type": "address"
        },
        {
          "indexed": true,
          "internalType": "address",
          "name": "operator",
          "type": "address"
        },
        {
          "indexed": false,
          "internalType": "bool",
          "name": "approved",
          "type": "bool"
        }
      ],
      "name": "ApprovalForAll",
      "type": "event"
    },
    {
      "anonymous": false,
      "inputs": [
        {
          "indexed": false,
          "internalType": "address",
          "name": "",
          "type": "address"
        },
        {
          "indexed": false,
          "internalType": "uint256",
          "name": "",
          "type": "uint256"
        },
        {
          "indexed": false,
          "internalType": "uint256",
          "name": "",
          "type": "uint256"
        },
        {
          "indexed": false,
          "internalType": "string",
          "name": "",
          "type": "string"
        }
      ],
      "name": "Details",
      "type": "event"
    },
    {
      "anonymous": false,
      "inputs": [
        {
          "indexed": true,
          "internalType": "address",
          "name": "from",
          "type": "address"
        },
        {
          "indexed": true,
          "internalType": "address",
          "name": "to",
          "type": "address"
        },
        {
          "indexed": true,
          "internalType": "uint256",
          "name": "tokenId",
          "type": "uint256"
        }
      ],
      "name": "Transfer",
      "type": "event"
    },
    {
      "anonymous": false,
      "inputs": [
        {
          "indexed": true,
          "internalType": "address",
          "name": "",
          "type": "address"
        },
        {
          "indexed": false,
          "internalType": "uint256",
          "name": "",
          "type": "uint256"
        }
      ],
      "name": "bid",
      "type": "event"
    },
    {
      "anonymous": false,
      "inputs": [
        {
          "indexed": false,
          "internalType": "address",
          "name": "",
          "type": "address"
        },
        {
          "indexed": false,
          "internalType": "address",
          "name": "",
          "type": "address"
        },
        {
          "indexed": false,
          "internalType": "uint256",
          "name": "",
          "type": "uint256"
        },
        {
          "indexed": false,
          "internalType": "bool",
          "name": "",
          "type": "bool"
        }
      ],
      "name": "nftPay",
      "type": "event"
    },
    {
      "anonymous": false,
      "inputs": [
        {
          "indexed": true,
          "internalType": "address",
          "name": "",
          "type": "address"
        },
        {
          "indexed": false,
          "internalType": "uint256",
          "name": "",
          "type": "uint256"
        }
      ],
      "name": "refund",
      "type": "event"
    },
    {
      "inputs": [
        {
          "internalType": "address",
          "name": "to",
          "type": "address"
        },
        {
          "internalType": "uint256",
          "name": "tokenId",
          "type": "uint256"
        },
        {
          "internalType": "bytes",
          "name": "data",
          "type": "bytes"
        }
      ],
      "name": "_safeMint",
      "outputs": [],
      "stateMutability": "nonpayable",
      "type": "function"
    },
    {
      "inputs": [
        {
          "internalType": "address",
          "name": "_beneficiary",
          "type": "address"
        }
      ],
      "name": "allow",
      "outputs": [
        {
          "internalType": "bool",
          "name": "",
          "type": "bool"
        }
      ],
      "stateMutability": "nonpayable",
      "type": "function"
    },
    {
      "inputs": [
        {
          "internalType": "address",
          "name": "to",
          "type": "address"
        },
        {
          "internalType": "uint256",
          "name": "tokenId",
          "type": "uint256"
        }
      ],
      "name": "approve",
      "outputs": [],
      "stateMutability": "nonpayable",
      "type": "function"
    },
    {
      "inputs": [
        {
          "internalType": "address",
          "name": "owner",
          "type": "address"
        }
      ],
      "name": "balanceOf",
      "outputs": [
        {
          "internalType": "uint256",
          "name": "",
          "type": "uint256"
        }
      ],
      "stateMutability": "view",
      "type": "function"
    },
    {
      "inputs": [
        {
          "internalType": "uint256",
          "name": "",
          "type": "uint256"
        },
        {
          "internalType": "uint256",
          "name": "",
          "type": "uint256"
        }
      ],
      "name": "bidders",
      "outputs": [
        {
          "internalType": "address payable",
          "name": "bidder",
          "type": "address"
        },
        {
          "internalType": "uint256",
          "name": "bidAmount",
          "type": "uint256"
        },
        {
          "internalType": "uint256",
          "name": "tokenId",
          "type": "uint256"
        }
      ],
      "stateMutability": "view",
      "type": "function"
    },
    {
      "inputs": [
        {
          "internalType": "address",
          "name": "",
          "type": "address"
        }
      ],
      "name": "bids",
      "outputs": [
        {
          "internalType": "uint256",
          "name": "",
          "type": "uint256"
        }
      ],
      "stateMutability": "view",
      "type": "function"
    },
    {
      "inputs": [
        {
          "internalType": "uint256",
          "name": "_tokenId",
          "type": "uint256"
        }
      ],
      "name": "deleteNFT",
      "outputs": [],
      "stateMutability": "nonpayable",
      "type": "function"
    },
    {
      "inputs": [],
      "name": "endAt",
      "outputs": [
        {
          "internalType": "uint256",
          "name": "",
          "type": "uint256"
        }
      ],
      "stateMutability": "view",
      "type": "function"
    },
    {
      "inputs": [
        {
          "internalType": "uint256",
          "name": "_tokenId",
          "type": "uint256"
        }
      ],
      "name": "endBid",
      "outputs": [
        {
          "internalType": "bool",
          "name": "bidEnded",
          "type": "bool"
        }
      ],
      "stateMutability": "nonpayable",
      "type": "function"
    },
    {
      "inputs": [],
      "name": "ended",
      "outputs": [
        {
          "internalType": "bool",
          "name": "",
          "type": "bool"
        }
      ],
      "stateMutability": "view",
      "type": "function"
    },
    {
      "inputs": [
        {
          "internalType": "uint256",
          "name": "tokenId",
          "type": "uint256"
        }
      ],
      "name": "getApproved",
      "outputs": [
        {
          "internalType": "address",
          "name": "",
          "type": "address"
        }
      ],
      "stateMutability": "view",
      "type": "function"
    },
    {
      "inputs": [],
      "name": "getNFTs",
      "outputs": [
        {
          "components": [
            {
              "internalType": "string",
              "name": "name",
              "type": "string"
            },
            {
              "internalType": "string",
              "name": "description",
              "type": "string"
            },
            {
              "internalType": "address",
              "name": "minter",
              "type": "address"
            },
            {
              "internalType": "address",
              "name": "owner",
              "type": "address"
            },
            {
              "internalType": "uint256",
              "name": "tokenId",
              "type": "uint256"
            },
            {
              "internalType": "uint256",
              "name": "mintTime",
              "type": "uint256"
            },
            {
              "internalType": "string",
              "name": "uri",
              "type": "string"
            },
            {
              "internalType": "uint256",
              "name": "tokenPrice",
              "type": "uint256"
            }
          ],
          "internalType": "struct mainNFT.NFTDetails[]",
          "name": "",
          "type": "tuple[]"
        }
      ],
      "stateMutability": "view",
      "type": "function"
    },
    {
      "inputs": [
        {
          "internalType": "uint256",
          "name": "",
          "type": "uint256"
        }
      ],
      "name": "highestBid",
      "outputs": [
        {
          "internalType": "uint256",
          "name": "",
          "type": "uint256"
        }
      ],
      "stateMutability": "view",
      "type": "function"
    },
    {
      "inputs": [
        {
          "internalType": "uint256",
          "name": "",
          "type": "uint256"
        }
      ],
      "name": "highestBidder",
      "outputs": [
        {
          "internalType": "address",
          "name": "",
          "type": "address"
        }
      ],
      "stateMutability": "view",
      "type": "function"
    },
    {
      "inputs": [
        {
          "internalType": "address",
          "name": "owner",
          "type": "address"
        },
        {
          "internalType": "address",
          "name": "operator",
          "type": "address"
        }
      ],
      "name": "isApprovedForAll",
      "outputs": [
        {
          "internalType": "bool",
          "name": "",
          "type": "bool"
        }
      ],
      "stateMutability": "view",
      "type": "function"
    },
    {
      "inputs": [
        {
          "internalType": "uint256",
          "name": "_tokenId",
          "type": "uint256"
        }
      ],
      "name": "listBidders",
      "outputs": [
        {
          "components": [
            {
              "internalType": "address payable",
              "name": "bidder",
              "type": "address"
            },
            {
              "internalType": "uint256",
              "name": "bidAmount",
              "type": "uint256"
            },
            {
              "internalType": "uint256",
              "name": "tokenId",
              "type": "uint256"
            }
          ],
          "internalType": "struct mainNFT.BidderList[]",
          "name": "list",
          "type": "tuple[]"
        }
      ],
      "stateMutability": "view",
      "type": "function"
    },
    {
      "inputs": [
        {
          "internalType": "address",
          "name": "_recipient",
          "type": "address"
        },
        {
          "internalType": "string",
          "name": "_name",
          "type": "string"
        },
        {
          "internalType": "string",
          "name": "_decription",
          "type": "string"
        },
        {
          "internalType": "uint256",
          "name": "_price",
          "type": "uint256"
        },
        {
          "internalType": "string",
          "name": "_nftURI",
          "type": "string"
        }
      ],
      "name": "mintNFT",
      "outputs": [
        {
          "internalType": "uint256",
          "name": "",
          "type": "uint256"
        }
      ],
      "stateMutability": "nonpayable",
      "type": "function"
    },
    {
      "inputs": [],
      "name": "name",
      "outputs": [
        {
          "internalType": "string",
          "name": "",
          "type": "string"
        }
      ],
      "stateMutability": "view",
      "type": "function"
    },
    {
      "inputs": [
        {
          "internalType": "uint256",
          "name": "",
          "type": "uint256"
        }
      ],
      "name": "nftInfo",
      "outputs": [
        {
          "internalType": "string",
          "name": "name",
          "type": "string"
        },
        {
          "internalType": "string",
          "name": "description",
          "type": "string"
        },
        {
          "internalType": "address",
          "name": "minter",
          "type": "address"
        },
        {
          "internalType": "address",
          "name": "owner",
          "type": "address"
        },
        {
          "internalType": "uint256",
          "name": "tokenId",
          "type": "uint256"
        },
        {
          "internalType": "uint256",
          "name": "mintTime",
          "type": "uint256"
        },
        {
          "internalType": "string",
          "name": "uri",
          "type": "string"
        },
        {
          "internalType": "uint256",
          "name": "tokenPrice",
          "type": "uint256"
        }
      ],
      "stateMutability": "view",
      "type": "function"
    },
    {
      "inputs": [
        {
          "internalType": "uint256",
          "name": "",
          "type": "uint256"
        }
      ],
      "name": "nftList",
      "outputs": [
        {
          "internalType": "string",
          "name": "name",
          "type": "string"
        },
        {
          "internalType": "string",
          "name": "description",
          "type": "string"
        },
        {
          "internalType": "address",
          "name": "minter",
          "type": "address"
        },
        {
          "internalType": "address",
          "name": "owner",
          "type": "address"
        },
        {
          "internalType": "uint256",
          "name": "tokenId",
          "type": "uint256"
        },
        {
          "internalType": "uint256",
          "name": "mintTime",
          "type": "uint256"
        },
        {
          "internalType": "string",
          "name": "uri",
          "type": "string"
        },
        {
          "internalType": "uint256",
          "name": "tokenPrice",
          "type": "uint256"
        }
      ],
      "stateMutability": "view",
      "type": "function"
    },
    {
      "inputs": [
        {
          "internalType": "uint256",
          "name": "tokenId",
          "type": "uint256"
        }
      ],
      "name": "ownerOf",
      "outputs": [
        {
          "internalType": "address",
          "name": "",
          "type": "address"
        }
      ],
      "stateMutability": "view",
      "type": "function"
    },
    {
      "inputs": [],
      "name": "pauseTrade",
      "outputs": [],
      "stateMutability": "nonpayable",
      "type": "function"
    },
    {
      "inputs": [
        {
          "internalType": "address payable",
          "name": "_to",
          "type": "address"
        },
        {
          "internalType": "uint256",
          "name": "_tokenId",
          "type": "uint256"
        }
      ],
      "name": "payment",
      "outputs": [],
      "stateMutability": "payable",
      "type": "function"
    },
    {
      "inputs": [
        {
          "internalType": "uint256",
          "name": "_tokenId",
          "type": "uint256"
        }
      ],
      "name": "placeBid",
      "outputs": [
        {
          "internalType": "bool",
          "name": "",
          "type": "bool"
        }
      ],
      "stateMutability": "payable",
      "type": "function"
    },
    {
      "inputs": [
        {
          "internalType": "uint256",
          "name": "_tokenId",
          "type": "uint256"
        },
        {
          "internalType": "uint256",
          "name": "_salePrice",
          "type": "uint256"
        }
      ],
      "name": "royaltyInfo",
      "outputs": [
        {
          "internalType": "address",
          "name": "",
          "type": "address"
        },
        {
          "internalType": "uint256",
          "name": "",
          "type": "uint256"
        }
      ],
      "stateMutability": "view",
      "type": "function"
    },
    {
      "inputs": [
        {
          "internalType": "address",
          "name": "from",
          "type": "address"
        },
        {
          "internalType": "address",
          "name": "to",
          "type": "address"
        },
        {
          "internalType": "uint256",
          "name": "tokenId",
          "type": "uint256"
        }
      ],
      "name": "safeTransferFrom",
      "outputs": [],
      "stateMutability": "nonpayable",
      "type": "function"
    },
    {
      "inputs": [
        {
          "internalType": "address",
          "name": "from",
          "type": "address"
        },
        {
          "internalType": "address",
          "name": "to",
          "type": "address"
        },
        {
          "internalType": "uint256",
          "name": "tokenId",
          "type": "uint256"
        },
        {
          "internalType": "bytes",
          "name": "data",
          "type": "bytes"
        }
      ],
      "name": "safeTransferFrom",
      "outputs": [],
      "stateMutability": "nonpayable",
      "type": "function"
    },
    {
      "inputs": [
        {
          "internalType": "address",
          "name": "operator",
          "type": "address"
        },
        {
          "internalType": "bool",
          "name": "approved",
          "type": "bool"
        }
      ],
      "name": "setApprovalForAll",
      "outputs": [],
      "stateMutability": "nonpayable",
      "type": "function"
    },
    {
      "inputs": [
        {
          "internalType": "uint256",
          "name": "_tokenId",
          "type": "uint256"
        },
        {
          "internalType": "uint256",
          "name": "_value",
          "type": "uint256"
        }
      ],
      "name": "startBidding",
      "outputs": [],
      "stateMutability": "nonpayable",
      "type": "function"
    },
    {
      "inputs": [],
      "name": "started",
      "outputs": [
        {
          "internalType": "bool",
          "name": "",
          "type": "bool"
        }
      ],
      "stateMutability": "view",
      "type": "function"
    },
    {
      "inputs": [
        {
          "internalType": "bytes4",
          "name": "interfaceId",
          "type": "bytes4"
        }
      ],
      "name": "supportsInterface",
      "outputs": [
        {
          "internalType": "bool",
          "name": "",
          "type": "bool"
        }
      ],
      "stateMutability": "view",
      "type": "function"
    },
    {
      "inputs": [],
      "name": "symbol",
      "outputs": [
        {
          "internalType": "string",
          "name": "",
          "type": "string"
        }
      ],
      "stateMutability": "view",
      "type": "function"
    },
    {
      "inputs": [
        {
          "internalType": "uint256",
          "name": "_tokenId",
          "type": "uint256"
        }
      ],
      "name": "tokenURI",
      "outputs": [
        {
          "internalType": "string",
          "name": "",
          "type": "string"
        }
      ],
      "stateMutability": "view",
      "type": "function"
    },
    {
      "inputs": [
        {
          "internalType": "address",
          "name": "from",
          "type": "address"
        },
        {
          "internalType": "address",
          "name": "to",
          "type": "address"
        },
        {
          "internalType": "uint256",
          "name": "tokenId",
          "type": "uint256"
        }
      ],
      "name": "transferFrom",
      "outputs": [],
      "stateMutability": "nonpayable",
      "type": "function"
    },
    {
      "inputs": [
        {
          "internalType": "address",
          "name": "_from",
          "type": "address"
        },
        {
          "internalType": "address",
          "name": "_to",
          "type": "address"
        },
        {
          "internalType": "uint256",
          "name": "_tokenId",
          "type": "uint256"
        },
        {
          "internalType": "uint256",
          "name": "_price",
          "type": "uint256"
        }
      ],
      "name": "transferNFT",
      "outputs": [],
      "stateMutability": "nonpayable",
      "type": "function"
    },
    {
      "inputs": [],
      "name": "unpauseTrade",
      "outputs": [],
      "stateMutability": "nonpayable",
      "type": "function"
    },
    {
      "inputs": [
        {
          "internalType": "uint256",
          "name": "_tokenId",
          "type": "uint256"
        },
        {
          "internalType": "uint256",
          "name": "_time",
          "type": "uint256"
        }
      ],
      "name": "updateEndTime",
      "outputs": [
        {
          "internalType": "bool",
          "name": "",
          "type": "bool"
        }
      ],
      "stateMutability": "nonpayable",
      "type": "function"
    },
    {
      "inputs": [
        {
          "internalType": "uint256",
          "name": "_tokenId",
          "type": "uint256"
        }
      ],
      "name": "withdraw",
      "outputs": [],
      "stateMutability": "nonpayable",
      "type": "function"
    }
  ],
  "bytecode": "0x6080604052600b805460ff60a01b191690553480156200001e57600080fd5b50604080518082018252601381527f54696d656c6573732041727420546f6b656e730000000000000000000000000060208083019182528351808501909452600384526215105560ea1b9084015281519192916200007f91600091620000d1565b50805162000095906001906020840190620000d1565b5050600160075550620000a7620000cd565b600b80546001600160a01b0319166001600160a01b0392909216919091179055620001b4565b3390565b828054620000df9062000177565b90600052602060002090601f0160209004810192826200010357600085556200014e565b82601f106200011e57805160ff19168380011785556200014e565b828001600101855582156200014e579182015b828111156200014e57825182559160200191906001019062000131565b506200015c92915062000160565b5090565b5b808211156200015c576000815560010162000161565b6002810460018216806200018c57607f821691505b60208210811415620001ae57634e487b7160e01b600052602260045260246000fd5b50919050565b61353e80620001c46000396000f3fe6080604052600436106102255760003560e01c80636a4f832b11610123578063b14c63c5116100ab578063e788a71c1161006f578063e788a71c1461066d578063e985e9c51461068d578063f3d1f026146106ad578063f687ed57146106c2578063ff9913e8146106e257610225565b8063b14c63c5146105be578063b88d4fde146105de578063c87b56dd146105fe578063d1c112051461061e578063e44542df1461064d57610225565b806395d89b41116100f257806395d89b41146105415780639979ef4514610556578063a22cb46514610569578063a2e4c0ca14610589578063adf800d81461059e57610225565b80636a4f832b146104cc57806370a08231146104ec57806375bea1661461050c5780637cc3ae8c1461052c57610225565b8063227212f2116101b1578063451df52e11610175578063451df52e1461042c5780635001f0331461044c57806362ea82db146104795780636352211e1461049957806367a09c23146104b957610225565b8063227212f21461037c57806323b872dd1461039e5780632a55205a146103be5780632e1a7d4d146103ec57806342842e0e1461040c57610225565b8063095ea7b3116101f8578063095ea7b3146102d157806312fa6feb146102f15780631cb62985146103065780631f2698ab146103335780631f8bc7901461034857610225565b806301ffc9a71461022a57806303ff52b71461026057806306fdde0314610282578063081812fc146102a4575b600080fd5b34801561023657600080fd5b5061024a610245366004612a9e565b610702565b6040516102579190612d76565b60405180910390f35b34801561026c57600080fd5b5061028061027b36600461291e565b61072f565b005b34801561028e57600080fd5b50610297610851565b6040516102579190612d81565b3480156102b057600080fd5b506102c46102bf366004612ad6565b6108e3565b6040516102579190612b7a565b3480156102dd57600080fd5b506102806102ec366004612a35565b61090a565b3480156102fd57600080fd5b5061024a610958565b34801561031257600080fd5b50610326610321366004612ad6565b610966565b6040516102579190612c2e565b34801561033f57600080fd5b5061024a6109fb565b34801561035457600080fd5b50610368610363366004612ad6565b610a04565b604051610257989796959493929190612d94565b34801561038857600080fd5b50610391610bee565b6040516102579190612c90565b3480156103aa57600080fd5b506102806103b9366004612874565b610e46565b3480156103ca57600080fd5b506103de6103d9366004612aee565b610e7e565b604051610257929190612c15565b3480156103f857600080fd5b50610280610407366004612ad6565b610f37565b34801561041857600080fd5b50610280610427366004612874565b61114a565b34801561043857600080fd5b506102c4610447366004612ad6565b611165565b34801561045857600080fd5b5061046c610467366004612994565b611180565b604051610257919061337a565b34801561048557600080fd5b5061046c6104943660046127f5565b611466565b3480156104a557600080fd5b506102c46104b4366004612ad6565b611478565b6102806104c7366004612811565b6114ad565b3480156104d857600080fd5b506102806104e7366004612a47565b6115b1565b3480156104f857600080fd5b5061046c6105073660046127f5565b6115e4565b34801561051857600080fd5b50610368610527366004612ad6565b611628565b34801561053857600080fd5b5061046c61165b565b34801561054d57600080fd5b50610297611661565b61024a610564366004612ad6565b611670565b34801561057557600080fd5b50610280610584366004612963565b61184b565b34801561059557600080fd5b5061028061185d565b3480156105aa57600080fd5b5061024a6105b9366004612ad6565b6118a6565b3480156105ca57600080fd5b5061046c6105d9366004612ad6565b6119a2565b3480156105ea57600080fd5b506102806105f93660046128b4565b6119b4565b34801561060a57600080fd5b50610297610619366004612ad6565b6119f3565b34801561062a57600080fd5b5061063e610639366004612aee565b6119fe565b60405161025793929190612b8e565b34801561065957600080fd5b5061024a610668366004612aee565b611a4a565b34801561067957600080fd5b50610280610688366004612aee565b611ab6565b34801561069957600080fd5b5061024a6106a836600461283c565b611bc2565b3480156106b957600080fd5b50610280611bf0565b3480156106ce57600080fd5b506102806106dd366004612ad6565b611c3f565b3480156106ee57600080fd5b5061024a6106fd3660046127f5565b611c82565b60006001600160e01b0319821663152a902d60e11b1480610727575061072782611cd2565b90505b919050565b8161073981611478565b6001600160a01b031661074a611ceb565b6001600160a01b0316146107795760405162461bcd60e51b815260040161077090613343565b60405180910390fd5b600b54600160a01b900460ff16156107a35760405162461bcd60e51b81526004016107709061325b565b60008381526019602052604090205460ff166107d15760405162461bcd60e51b8152600401610770906131a4565b6107dc85858561114a565b6107e68484611cef565b60008381526014602090815260408083206003810180546001600160a01b0319166001600160a01b038a811691821790925560079092018790556019909352818420805460ff191690559051869391928916916000805160206134e983398151915291a45050505050565b60606000805461086090613411565b80601f016020809104026020016040519081016040528092919081815260200182805461088c90613411565b80156108d95780601f106108ae576101008083540402835291602001916108d9565b820191906000526020600020905b8154815290600101906020018083116108bc57829003601f168201915b5050505050905090565b60006108ee82611d5d565b506000908152600460205260409020546001600160a01b031690565b600061091582611478565b9050806001600160a01b0316836001600160a01b031614156109495760405162461bcd60e51b8152600401610770906131e5565b6109538383611cef565b505050565b601a54610100900460ff1681565b606060226000838152602001908152602001600020805480602002602001604051908101604052809291908181526020016000905b828210156109f0576000848152602090819020604080516060810182526003860290920180546001600160a01b031683526001808201548486015260029091015491830191909152908352909201910161099b565b505050509050919050565b601a5460ff1681565b601460205260009081526040902080548190610a1f90613411565b80601f0160208091040260200160405190810160405280929190818152602001828054610a4b90613411565b8015610a985780601f10610a6d57610100808354040283529160200191610a98565b820191906000526020600020905b815481529060010190602001808311610a7b57829003601f168201915b505050505090806001018054610aad90613411565b80601f0160208091040260200160405190810160405280929190818152602001828054610ad990613411565b8015610b265780601f10610afb57610100808354040283529160200191610b26565b820191906000526020600020905b815481529060010190602001808311610b0957829003601f168201915b505050600284015460038501546004860154600587015460068801805497986001600160a01b03958616989490951696509194509291610b6590613411565b80601f0160208091040260200160405190810160405280929190818152602001828054610b9190613411565b8015610bde5780601f10610bb357610100808354040283529160200191610bde565b820191906000526020600020905b815481529060010190602001808311610bc157829003601f168201915b5050505050908060070154905088565b60606015805480602002602001604051908101604052809291908181526020016000905b82821015610e3d578382906000526020600020906008020160405180610100016040529081600082018054610c4690613411565b80601f0160208091040260200160405190810160405280929190818152602001828054610c7290613411565b8015610cbf5780601f10610c9457610100808354040283529160200191610cbf565b820191906000526020600020905b815481529060010190602001808311610ca257829003601f168201915b50505050508152602001600182018054610cd890613411565b80601f0160208091040260200160405190810160405280929190818152602001828054610d0490613411565b8015610d515780601f10610d2657610100808354040283529160200191610d51565b820191906000526020600020905b815481529060010190602001808311610d3457829003601f168201915b505050918352505060028201546001600160a01b0390811660208301526003830154166040820152600482015460608201526005820154608082015260068201805460a090920191610da290613411565b80601f0160208091040260200160405190810160405280929190818152602001828054610dce90613411565b8015610e1b5780601f10610df057610100808354040283529160200191610e1b565b820191906000526020600020905b815481529060010190602001808311610dfe57829003601f168201915b5050505050815260200160078201548152505081526020019060010190610c12565b50505050905090565b610e57610e51611ceb565b82611d82565b610e735760405162461bcd60e51b815260040161077090612e0b565b610953838383611de1565b60008281526009602090815260408083208151808301909252546001600160a01b038116808352600160a01b9091046001600160601b0316928201929092528291610ef35750604080518082019091526008546001600160a01b0381168252600160a01b90046001600160601b031660208201525b6000610efd611f11565b6001600160601b031682602001516001600160601b031686610f1f91906133af565b610f29919061339b565b915196919550909350505050565b610f3f611f17565b6000601e6000610f4d611ceb565b6001600160a01b03166001600160a01b031681526020019081526020016000205490506000601e6000610f7e611ceb565b6001600160a01b0316815260208082019290925260409081016000908120939093558483526022909152812054905b8181101561106d576000848152602260205260409020805482908110610fe357634e487b7160e01b600052603260045260246000fd5b60009182526020909120600390910201546001600160a01b031633141561105b57600084815260226020526040902080548290811061103257634e487b7160e01b600052603260045260246000fd5b60009182526020822060039091020180546001600160a01b031916815560018101829055600201555b806110658161344c565b915050610fad565b50600080611079611ceb565b6001600160a01b03168460405161108f90612b77565b60006040518083038185875af1925050503d80600081146110cc576040519150601f19603f3d011682016040523d82523d6000602084013e6110d1565b606091505b5091509150816110f35760405162461bcd60e51b815260040161077090613050565b6110fb611ceb565b6001600160a01b03167f410085df54bf273a749e521cef84e728e697569a719b84888672469ca66d58d485604051611133919061337a565b60405180910390a250505050611147611f41565b50565b610953838383604051806020016040528060008152506119b4565b601d602052600090815260409020546001600160a01b031681565b600061118c600a611f48565b6000611198600a611f51565b9050426111a58883611f55565b6111af828561202a565b604051806101000160405280888152602001878152602001896001600160a01b03168152602001896001600160a01b0316815260200183815260200182815260200185815260200186815250600c6000820151816000019080519060200190611219929190612628565b5060208281015180516112329260018501920190612628565b5060408201516002820180546001600160a01b039283166001600160a01b03199182161790915560608401516003840180549190931691161790556080820151600482015560a0820151600582015560c0820151805161129c916006840191602090910190612628565b5060e0919091015160079091015560158054600181018255600091909152600c805490916008027f55f448fdea98c4d29eb340757ef0a66cd03dbb9538908a6a81d96026b71ec4750190819083906112f390613411565b6112fe9291906126ac565b50600182018160010190805461131390613411565b61131e9291906126ac565b5060028281015490820180546001600160a01b039283166001600160a01b03199182161790915560038085015490840180549190931691161790556004808301549082015560058083015490820155600680830180549183019161138190613411565b61138c9291906126ac565b506007918201549101556000828152601460205260409020600c8054909190819083906113b890613411565b6113c39291906126ac565b5060018201816001019080546113d890613411565b6113e39291906126ac565b5060028281015490820180546001600160a01b039283166001600160a01b03199182161790915560038085015490840180549190931691161790556004808301549082015560058083015490820155600680830180549183019161144690613411565b6114519291906126ac565b50600791820154910155509695505050505050565b601e6020526000908152604090205481565b6000818152600260205260408120546001600160a01b0316806107275760405162461bcd60e51b81526004016107709061316d565b6114b5611f17565b600b54600160a01b900460ff16156114df5760405162461bcd60e51b81526004016107709061325b565b346114fc5760405162461bcd60e51b8152600401610770906132c9565b60405134906001600160a01b0384169082156108fc029083906000818181858888f19350505050158015611534573d6000803e3d6000fd5b506000828152601960205260409020805460ff191660011790557f7923835e2c85c170d11296c12a7a8b5cd977e9d9d0f1e83b0dfc16bce506ce79611577611ceb565b6000848152601960205260409081902054905161159c92918791349160ff1690612baf565b60405180910390a1506115ad611f41565b5050565b6115bb8383611f55565b6115c8600084848461206e565b6109535760405162461bcd60e51b815260040161077090612e58565b60006001600160a01b03821661160c5760405162461bcd60e51b81526004016107709061307d565b506001600160a01b031660009081526003602052604090205490565b6015818154811061163857600080fd5b9060005260206000209060080201600091509050806000018054610a1f90613411565b601b5481565b60606001805461086090613411565b600b54600090600160a01b900460ff161561169d5760405162461bcd60e51b81526004016107709061325b565b6116a5611f17565b601a5460ff166116c75760405162461bcd60e51b815260040161077090613019565b60008281526018602052604090206001015442106116f75760405162461bcd60e51b815260040161077090612f67565b6000828152601c602052604090205434116117245760405162461bcd60e51b815260040161077090613292565b6000828152601c6020526040902034905561173d611ceb565b6000838152601d6020908152604080832080546001600160a01b03199081166001600160a01b039687161780835583516060810185529087168152888652601c80865284872080548388018190528387018c90529251601f80548616918b1691909117815592875560218b81558b895260228852868920805460018181018355918b52898b20955460039091029095018054958c1695909616949094178555875493850193909355915460029093019290925554825487168652601e85528386208190559488905290549252519216917f59d667a5d96bfc0d4f481598b93470d6de894605d935ccec82cc69ceb5a4be14916118389161337a565b60405180910390a250600161072a611f41565b6115ad611856611ceb565b838361217e565b600b546001600160a01b0316611871611ceb565b6001600160a01b0316146118975760405162461bcd60e51b815260040161077090612eef565b600b805460ff60a01b19169055565b6000818152601860205260408120600101544281118015906118d85750336118cd84611478565b6001600160a01b0316145b6118f45760405162461bcd60e51b815260040161077090613149565b6000838152601c60209081526040808320839055601d825280832080546001600160a01b03191690556022909152812054905b8181101561199757600085815260226020526040902080548290811061195d57634e487b7160e01b600052603260045260246000fd5b60009182526020822060039091020180546001600160a01b031916815560018101829055600201558061198f8161344c565b915050611927565b506001949350505050565b601c6020526000908152604090205481565b6119c56119bf611ceb565b83611d82565b6119e15760405162461bcd60e51b815260040161077090612e0b565b6119ed84848484612221565b50505050565b606061072782612254565b60226020528160005260406000208181548110611a1a57600080fd5b60009182526020909120600390910201805460018201546002909201546001600160a01b03909116935090915083565b600b546000906001600160a01b0316611a61611ceb565b6001600160a01b031614611a875760405162461bcd60e51b815260040161077090612eef565b60008381526018602052604081206001018054849290611aa8908490613383565b909155506001949350505050565b81611ac081611478565b6001600160a01b0316611ad1611ceb565b6001600160a01b031614611af75760405162461bcd60e51b815260040161077090613343565b600b54600160a01b900460ff1615611b215760405162461bcd60e51b81526004016107709061325b565b601a5460ff1615611b445760405162461bcd60e51b815260040161077090613226565b601a805460ff19166001179055611b5d42610258613383565b601b90815560008481526018602090815260408083204281559354600190940193909355601c905220829055611b91611ceb565b6000938452601d602052604090932080546001600160a01b0319166001600160a01b03909416939093179092555050565b6001600160a01b03918216600090815260056020908152604080832093909416825291909152205460ff1690565b600b546001600160a01b0316611c04611ceb565b6001600160a01b031614611c2a5760405162461bcd60e51b815260040161077090612eef565b600b805460ff60a01b1916600160a01b179055565b600b546001600160a01b0316611c53611ceb565b6001600160a01b031614611c795760405162461bcd60e51b815260040161077090612eef565b61114781612351565b600b546000906001600160a01b0316611c99611ceb565b6001600160a01b031614611cbf5760405162461bcd60e51b815260040161077090612eef565b611cca82600161184b565b506001919050565b6001600160e01b031981166301ffc9a760e01b14919050565b3390565b600081815260046020526040902080546001600160a01b0319166001600160a01b0384169081179091558190611d2482611478565b6001600160a01b03167f8c5be1e5ebec7d5bd14f71427d1e84f3dd0314c0f7b2291e5b200ac8c7c3b92560405160405180910390a45050565b611d668161235a565b6111475760405162461bcd60e51b81526004016107709061316d565b600080611d8e83611478565b9050806001600160a01b0316846001600160a01b03161480611db55750611db58185611bc2565b80611dd95750836001600160a01b0316611dce846108e3565b6001600160a01b0316145b949350505050565b826001600160a01b0316611df482611478565b6001600160a01b031614611e1a5760405162461bcd60e51b815260040161077090612eaa565b6001600160a01b038216611e405760405162461bcd60e51b815260040161077090612f9e565b611e4b838383610953565b600081815260046020908152604080832080546001600160a01b03191690556001600160a01b038616835260039091528120805460019290611e8e9084906133ce565b90915550506001600160a01b0382166000908152600360205260408120805460019290611ebc908490613383565b909155505060008181526002602052604080822080546001600160a01b0319166001600160a01b0386811691821790925591518493918716916000805160206134e983398151915291a4610953838383610953565b61271090565b60026007541415611f3a5760405162461bcd60e51b81526004016107709061330c565b6002600755565b6001600755565b80546001019055565b5490565b6001600160a01b038216611f7b5760405162461bcd60e51b815260040161077090613114565b611f848161235a565b15611fa15760405162461bcd60e51b815260040161077090612f30565b611fad60008383610953565b6001600160a01b0382166000908152600360205260408120805460019290611fd6908490613383565b909155505060008181526002602052604080822080546001600160a01b0319166001600160a01b03861690811790915590518392906000805160206134e9833981519152908290a46115ad60008383610953565b6120338261235a565b61204f5760405162461bcd60e51b8152600401610770906130c6565b6000828152600660209081526040909120825161095392840190612628565b6000612082846001600160a01b0316612377565b1561199757836001600160a01b031663150b7a0261209e611ceb565b8786866040518563ffffffff1660e01b81526004016120c09493929190612bd8565b602060405180830381600087803b1580156120da57600080fd5b505af192505050801561210a575060408051601f3d908101601f1916820190925261210791810190612aba565b60015b612164573d808015612138576040519150601f19603f3d011682016040523d82523d6000602084013e61213d565b606091505b50805161215c5760405162461bcd60e51b815260040161077090612e58565b805181602001fd5b6001600160e01b031916630a85bd0160e11b149050611dd9565b816001600160a01b0316836001600160a01b031614156121b05760405162461bcd60e51b815260040161077090612fe2565b6001600160a01b0383811660008181526005602090815260408083209487168084529490915290819020805460ff1916851515179055517f17307eab39ab6107e8899845ad3d59bd9653f200f220920489ca2b5937696c3190612214908590612d76565b60405180910390a3505050565b61222c848484611de1565b6122388484848461206e565b6119ed5760405162461bcd60e51b815260040161077090612e58565b606061225f82611d5d565b6000828152600660205260408120805461227890613411565b80601f01602080910402602001604051908101604052809291908181526020018280546122a490613411565b80156122f15780601f106122c6576101008083540402835291602001916122f1565b820191906000526020600020905b8154815290600101906020018083116122d457829003601f168201915b5050505050905060006123026123a8565b90508051600014156123165750905061072a565b815115612348578082604051602001612330929190612b48565b6040516020818303038152906040529250505061072a565b611dd9846123ba565b61114781612421565b6000908152600260205260409020546001600160a01b0316151590565b600080826001600160a01b0316803b806020016040519081016040528181526000908060200190933c511192915050565b60408051602081019091526000815290565b60606123c582611d5d565b60006123cf6123a8565b905060008151116123ef576040518060200160405280600081525061241a565b806123f984612461565b60405160200161240a929190612b48565b6040516020818303038152906040525b9392505050565b61242a8161257c565b6000818152600660205260409020805461244390613411565b15905061114757600081815260066020526040812061114791612727565b60608161248657506040805180820190915260018152600360fc1b602082015261072a565b8160005b81156124b0578061249a8161344c565b91506124a99050600a8361339b565b915061248a565b60008167ffffffffffffffff8111156124d957634e487b7160e01b600052604160045260246000fd5b6040519080825280601f01601f191660200182016040528015612503576020820181803683370190505b5090505b8415611dd9576125186001836133ce565b9150612525600a86613467565b612530906030613383565b60f81b81838151811061255357634e487b7160e01b600052603260045260246000fd5b60200101906001600160f81b031916908160001a905350612575600a8661339b565b9450612507565b600061258782611478565b905061259581600084610953565b600082815260046020908152604080832080546001600160a01b03191690556001600160a01b0384168352600390915281208054600192906125d89084906133ce565b909155505060008281526002602052604080822080546001600160a01b0319169055518391906001600160a01b038416906000805160206134e9833981519152908390a46115ad81600084610953565b82805461263490613411565b90600052602060002090601f016020900481019282612656576000855561269c565b82601f1061266f57805160ff191683800117855561269c565b8280016001018555821561269c579182015b8281111561269c578251825591602001919060010190612681565b506126a892915061275f565b5090565b8280546126b890613411565b90600052602060002090601f0160209004810192826126da576000855561269c565b82601f106126eb578054855561269c565b8280016001018555821561269c57600052602060002091601f016020900482015b8281111561269c57825482559160010191906001019061270c565b50805461273390613411565b6000825580601f106127455750611147565b601f01602090049060005260206000209081019061114791905b5b808211156126a85760008155600101612760565b600082601f830112612784578081fd5b813567ffffffffffffffff8082111561279f5761279f6134a7565b604051601f8301601f1916810160200182811182821017156127c3576127c36134a7565b6040528281528483016020018610156127da578384fd5b82602086016020830137918201602001929092529392505050565b600060208284031215612806578081fd5b813561241a816134bd565b60008060408385031215612823578081fd5b823561282e816134bd565b946020939093013593505050565b6000806040838503121561284e578182fd5b8235612859816134bd565b91506020830135612869816134bd565b809150509250929050565b600080600060608486031215612888578081fd5b8335612893816134bd565b925060208401356128a3816134bd565b929592945050506040919091013590565b600080600080608085870312156128c9578081fd5b84356128d4816134bd565b935060208501356128e4816134bd565b925060408501359150606085013567ffffffffffffffff811115612906578182fd5b61291287828801612774565b91505092959194509250565b60008060008060808587031215612933578384fd5b843561293e816134bd565b9350602085013561294e816134bd565b93969395505050506040820135916060013590565b60008060408385031215612975578182fd5b8235612980816134bd565b915060208301358015158114612869578182fd5b600080600080600060a086880312156129ab578081fd5b85356129b6816134bd565b9450602086013567ffffffffffffffff808211156129d2578283fd5b6129de89838a01612774565b955060408801359150808211156129f3578283fd5b6129ff89838a01612774565b9450606088013593506080880135915080821115612a1b578283fd5b50612a2888828901612774565b9150509295509295909350565b60008060408385031215612823578182fd5b600080600060608486031215612a5b578283fd5b8335612a66816134bd565b925060208401359150604084013567ffffffffffffffff811115612a88578182fd5b612a9486828701612774565b9150509250925092565b600060208284031215612aaf578081fd5b813561241a816134d2565b600060208284031215612acb578081fd5b815161241a816134d2565b600060208284031215612ae7578081fd5b5035919050565b60008060408385031215612b00578182fd5b50508035926020909101359150565b6001600160a01b03169052565b60008151808452612b348160208601602086016133e5565b601f01601f19169290920160200192915050565b60008351612b5a8184602088016133e5565b835190830190612b6e8183602088016133e5565b01949350505050565b90565b6001600160a01b0391909116815260200190565b6001600160a01b039390931683526020830191909152604082015260600190565b6001600160a01b0394851681529290931660208301526040820152901515606082015260800190565b6001600160a01b0385811682528416602082015260408101839052608060608201819052600090612c0b90830184612b1c565b9695505050505050565b6001600160a01b03929092168252602082015260400190565b602080825282518282018190526000919060409081850190868401855b82811015612c8357815180516001600160a01b0316855286810151878601528501518585015260609093019290850190600101612c4b565b5091979650505050505050565b60208082528251828201819052600091906040908185019080840286018301878501865b83811015612d6857603f1989840301855281516101008151818652612cdb82870182612b1c565b915050888201518582038a870152612cf38282612b1c565b91505087820151612d0689870182612b0f565b50606080830151612d1982880182612b0f565b50506080828101519086015260a0808301519086015260c08083015186830382880152612d468382612b1c565b60e0948501519790940196909652505094870194925090860190600101612cb4565b509098975050505050505050565b901515815260200190565b60006020825261241a6020830184612b1c565b6000610100808352612da88184018c612b1c565b90508281036020840152612dbc818b612b1c565b6001600160a01b038a81166040860152891660608501526080840188905260a0840187905283810360c08501529050612df58186612b1c565b9150508260e08301529998505050505050505050565b6020808252602d908201527f4552433732313a2063616c6c6572206973206e6f7420746f6b656e206f776e6560408201526c1c881bdc88185c1c1c9bdd9959609a1b606082015260800190565b60208082526032908201527f4552433732313a207472616e7366657220746f206e6f6e20455243373231526560408201527131b2b4bb32b91034b6b83632b6b2b73a32b960711b606082015260800190565b60208082526025908201527f4552433732313a207472616e736665722066726f6d20696e636f72726563742060408201526437bbb732b960d91b606082015260800190565b60208082526021908201527f4552433732313a2073656e646572206973206e6f7420617574686f72697a65646040820152601760f91b606082015260800190565b6020808252601c908201527f4552433732313a20746f6b656e20616c7265616479206d696e74656400000000604082015260600190565b6020808252601d908201527f4552433732313a204e46542061756374696f6e20697320656e6465642e000000604082015260600190565b60208082526024908201527f4552433732313a207472616e7366657220746f20746865207a65726f206164646040820152637265737360e01b606082015260800190565b60208082526019908201527f4552433732313a20617070726f766520746f2063616c6c657200000000000000604082015260600190565b6020808252601c908201527f4552433732313a2042696464696e67206e6f7420737461727465642e00000000604082015260600190565b60208082526013908201527231b7bab632103737ba103bb4ba34323930bb9760691b604082015260600190565b60208082526029908201527f4552433732313a2061646472657373207a65726f206973206e6f7420612076616040820152683634b21037bbb732b960b91b606082015260800190565b6020808252602e908201527f45524337323155524953746f726167653a2055524920736574206f66206e6f6e60408201526d32bc34b9ba32b73a103a37b5b2b760911b606082015260800190565b6020808252818101527f4552433732313a206d696e7420746f20746865207a65726f2061646472657373604082015260600190565b6020808252600a9082015269464f5242494444454e2160b01b604082015260600190565b60208082526018908201527f4552433732313a20696e76616c696420746f6b656e2049440000000000000000604082015260600190565b60208082526021908201527f4552433732313a2073656e64204158495320746f2073656c6c657220666972736040820152601d60fa1b606082015260800190565b60208082526021908201527f4552433732313a20617070726f76616c20746f2063757272656e74206f776e656040820152603960f91b606082015260800190565b6020808252818101527f4552433732313a2062696464696e6720616c726561647920737461727465642e604082015260600190565b60208082526018908201527f4552433732313a204e4654207472616465207061757365640000000000000000604082015260600190565b6020808252601c908201527f4552433732313a20496e6372656173652062696420616d6f756e742e00000000604082015260600190565b60208082526023908201527f4552433732313a2073656e64696e672030207061796d656e7420746f2073656c6040820152623632b960e91b606082015260800190565b6020808252601f908201527f5265656e7472616e637947756172643a207265656e7472616e742063616c6c00604082015260600190565b6020808252601c908201527f4552433732313a20756e617574686f72697a65642073656e6465722e00000000604082015260600190565b90815260200190565b600082198211156133965761339661347b565b500190565b6000826133aa576133aa613491565b500490565b60008160001904831182151516156133c9576133c961347b565b500290565b6000828210156133e0576133e061347b565b500390565b60005b838110156134005781810151838201526020016133e8565b838111156119ed5750506000910152565b60028104600182168061342557607f821691505b6020821081141561344657634e487b7160e01b600052602260045260246000fd5b50919050565b60006000198214156134605761346061347b565b5060010190565b60008261347657613476613491565b500690565b634e487b7160e01b600052601160045260246000fd5b634e487b7160e01b600052601260045260246000fd5b634e487b7160e01b600052604160045260246000fd5b6001600160a01b038116811461114757600080fd5b6001600160e01b03198116811461114757600080fdfeddf252ad1be2c89b69c2b068fc378daa952ba7f163c4a11628f55a4df523b3efa264697066735822122001323855ca5e17fe679d716c5a96cc95e0fa8ccc1fe0983cab9cb3c59092ea8564736f6c63430008000033",
  "linkReferences": {},
  "deployedLinkReferences": {}
}